{
  "contractName": "Exchange",
  "abi": [
    {
      "inputs": [
        {
          "internalType": "address",
          "name": "_feeAccount",
          "type": "address"
        },
        {
          "internalType": "uint256",
          "name": "_feePercent",
          "type": "uint256"
        }
      ],
      "payable": false,
      "stateMutability": "nonpayable",
      "type": "constructor"
    },
    {
      "anonymous": false,
      "inputs": [
        {
          "indexed": false,
          "internalType": "address",
          "name": "token",
          "type": "address"
        },
        {
          "indexed": false,
          "internalType": "address",
          "name": "user",
          "type": "address"
        },
        {
          "indexed": false,
          "internalType": "uint256",
          "name": "amount",
          "type": "uint256"
        },
        {
          "indexed": false,
          "internalType": "uint256",
          "name": "balance",
          "type": "uint256"
        }
      ],
      "name": "Deposit",
      "type": "event"
    },
    {
      "anonymous": false,
      "inputs": [
        {
          "indexed": false,
          "internalType": "address",
          "name": "token",
          "type": "address"
        },
        {
          "indexed": false,
          "internalType": "address",
          "name": "user",
          "type": "address"
        },
        {
          "indexed": false,
          "internalType": "uint256",
          "name": "amount",
          "type": "uint256"
        },
        {
          "indexed": false,
          "internalType": "uint256",
          "name": "balance",
          "type": "uint256"
        }
      ],
      "name": "Withdrawn",
      "type": "event"
    },
    {
      "payable": false,
      "stateMutability": "nonpayable",
      "type": "fallback"
    },
    {
      "constant": true,
      "inputs": [],
      "name": "feeAccount",
      "outputs": [
        {
          "internalType": "address",
          "name": "",
          "type": "address"
        }
      ],
      "payable": false,
      "stateMutability": "view",
      "type": "function"
    },
    {
      "constant": true,
      "inputs": [],
      "name": "feePercent",
      "outputs": [
        {
          "internalType": "uint256",
          "name": "",
          "type": "uint256"
        }
      ],
      "payable": false,
      "stateMutability": "view",
      "type": "function"
    },
    {
      "constant": true,
      "inputs": [],
      "name": "orderCount",
      "outputs": [
        {
          "internalType": "uint256",
          "name": "",
          "type": "uint256"
        }
      ],
      "payable": false,
      "stateMutability": "view",
      "type": "function"
    },
    {
      "constant": true,
      "inputs": [
        {
          "internalType": "address",
          "name": "",
          "type": "address"
        },
        {
          "internalType": "address",
          "name": "",
          "type": "address"
        }
      ],
      "name": "tokens",
      "outputs": [
        {
          "internalType": "uint256",
          "name": "",
          "type": "uint256"
        }
      ],
      "payable": false,
      "stateMutability": "view",
      "type": "function"
    },
    {
      "constant": false,
      "inputs": [],
      "name": "depositEther",
      "outputs": [],
      "payable": true,
      "stateMutability": "payable",
      "type": "function"
    },
    {
      "constant": false,
      "inputs": [
        {
          "internalType": "uint256",
          "name": "_amount",
          "type": "uint256"
        }
      ],
      "name": "withdrawEther",
      "outputs": [],
      "payable": false,
      "stateMutability": "nonpayable",
      "type": "function"
    },
    {
      "constant": false,
      "inputs": [
        {
          "internalType": "address",
          "name": "_token",
          "type": "address"
        },
        {
          "internalType": "uint256",
          "name": "_amount",
          "type": "uint256"
        }
      ],
      "name": "depositToken",
      "outputs": [],
      "payable": false,
      "stateMutability": "nonpayable",
      "type": "function"
    },
    {
      "constant": false,
      "inputs": [
        {
          "internalType": "address",
          "name": "_token",
          "type": "address"
        },
        {
          "internalType": "uint256",
          "name": "_amount",
          "type": "uint256"
        }
      ],
      "name": "withdrawToken",
      "outputs": [],
      "payable": false,
      "stateMutability": "nonpayable",
      "type": "function"
    },
    {
      "constant": true,
      "inputs": [
        {
          "internalType": "address",
          "name": "_token",
          "type": "address"
        },
        {
          "internalType": "address",
          "name": "_user",
          "type": "address"
        }
      ],
      "name": "balanceOf",
      "outputs": [
        {
          "internalType": "uint256",
          "name": "",
          "type": "uint256"
        }
      ],
      "payable": false,
      "stateMutability": "view",
      "type": "function"
    }
  ],
  "bytecode": "0x608060405234801561001057600080fd5b506040516111af3803806111af8339818101604052604081101561003357600080fd5b810190808051906020019092919080519060200190929190505050816000806101000a81548173ffffffffffffffffffffffffffffffffffffffff021916908373ffffffffffffffffffffffffffffffffffffffff160217905550806001819055505050611109806100a66000396000f3fe6080604052600436106100865760003560e01c806365e17c9d1161005957806365e17c9d146101de5780637fd6f15c1461023557806398ea5fca146102605780639e281a981461026a578063f7888aec146102c557610086565b80632453ffa814610098578063338b5dea146100c35780633bed33ce1461011e578063508493bc14610159575b34801561009257600080fd5b50600080fd5b3480156100a457600080fd5b506100ad61034a565b6040518082815260200191505060405180910390f35b3480156100cf57600080fd5b5061011c600480360360408110156100e657600080fd5b81019080803573ffffffffffffffffffffffffffffffffffffffff16906020019092919080359060200190929190505050610350565b005b34801561012a57600080fd5b506101576004803603602081101561014157600080fd5b81019080803590602001909291905050506106bf565b005b34801561016557600080fd5b506101c86004803603604081101561017c57600080fd5b81019080803573ffffffffffffffffffffffffffffffffffffffff169060200190929190803573ffffffffffffffffffffffffffffffffffffffff1690602001909291905050506109c5565b6040518082815260200191505060405180910390f35b3480156101ea57600080fd5b506101f36109ea565b604051808273ffffffffffffffffffffffffffffffffffffffff1673ffffffffffffffffffffffffffffffffffffffff16815260200191505060405180910390f35b34801561024157600080fd5b5061024a610a0f565b6040518082815260200191505060405180910390f35b610268610a15565b005b34801561027657600080fd5b506102c36004803603604081101561028d57600080fd5b81019080803573ffffffffffffffffffffffffffffffffffffffff16906020019092919080359060200190929190505050610c4a565b005b3480156102d157600080fd5b50610334600480360360408110156102e857600080fd5b81019080803573ffffffffffffffffffffffffffffffffffffffff169060200190929190803573ffffffffffffffffffffffffffffffffffffffff16906020019092919050505061100e565b6040518082815260200191505060405180910390f35b60025481565b600073ffffffffffffffffffffffffffffffffffffffff168273ffffffffffffffffffffffffffffffffffffffff16141561038a57600080fd5b8173ffffffffffffffffffffffffffffffffffffffff166323b872dd3330846040518463ffffffff1660e01b8152600401808473ffffffffffffffffffffffffffffffffffffffff1673ffffffffffffffffffffffffffffffffffffffff1681526020018373ffffffffffffffffffffffffffffffffffffffff1673ffffffffffffffffffffffffffffffffffffffff1681526020018281526020019350505050602060405180830381600087803b15801561044557600080fd5b505af1158015610459573d6000803e3d6000fd5b505050506040513d602081101561046f57600080fd5b810190808051906020019092919050505061048957600080fd5b61051881600360008573ffffffffffffffffffffffffffffffffffffffff1673ffffffffffffffffffffffffffffffffffffffff16815260200190815260200160002060003373ffffffffffffffffffffffffffffffffffffffff1673ffffffffffffffffffffffffffffffffffffffff1681526020019081526020016000205461109590919063ffffffff16565b600360008473ffffffffffffffffffffffffffffffffffffffff1673ffffffffffffffffffffffffffffffffffffffff16815260200190815260200160002060003373ffffffffffffffffffffffffffffffffffffffff1673ffffffffffffffffffffffffffffffffffffffff168152602001908152602001600020819055507fdcbc1c05240f31ff3ad067ef1ee35ce4997762752e3a095284754544f4c709d7823383600360008773ffffffffffffffffffffffffffffffffffffffff1673ffffffffffffffffffffffffffffffffffffffff16815260200190815260200160002060003373ffffffffffffffffffffffffffffffffffffffff1673ffffffffffffffffffffffffffffffffffffffff16815260200190815260200160002054604051808573ffffffffffffffffffffffffffffffffffffffff1673ffffffffffffffffffffffffffffffffffffffff1681526020018473ffffffffffffffffffffffffffffffffffffffff1673ffffffffffffffffffffffffffffffffffffffff16815260200183815260200182815260200194505050505060405180910390a15050565b80600360008073ffffffffffffffffffffffffffffffffffffffff1673ffffffffffffffffffffffffffffffffffffffff16815260200190815260200160002060003373ffffffffffffffffffffffffffffffffffffffff1673ffffffffffffffffffffffffffffffffffffffff16815260200190815260200160002054101561074857600080fd5b6107d781600360008073ffffffffffffffffffffffffffffffffffffffff1673ffffffffffffffffffffffffffffffffffffffff16815260200190815260200160002060003373ffffffffffffffffffffffffffffffffffffffff1673ffffffffffffffffffffffffffffffffffffffff168152602001908152602001600020546110b490919063ffffffff16565b600360008073ffffffffffffffffffffffffffffffffffffffff1673ffffffffffffffffffffffffffffffffffffffff16815260200190815260200160002060003373ffffffffffffffffffffffffffffffffffffffff1673ffffffffffffffffffffffffffffffffffffffff168152602001908152602001600020819055503373ffffffffffffffffffffffffffffffffffffffff166108fc829081150290604051600060405180830381858888f1935050505015801561089d573d6000803e3d6000fd5b507f91fb9d98b786c57d74c099ccd2beca1739e9f6a81fb49001ca465c4b7591bbe260003383600360008073ffffffffffffffffffffffffffffffffffffffff1673ffffffffffffffffffffffffffffffffffffffff16815260200190815260200160002060003373ffffffffffffffffffffffffffffffffffffffff1673ffffffffffffffffffffffffffffffffffffffff16815260200190815260200160002054604051808573ffffffffffffffffffffffffffffffffffffffff1673ffffffffffffffffffffffffffffffffffffffff1681526020018473ffffffffffffffffffffffffffffffffffffffff1673ffffffffffffffffffffffffffffffffffffffff16815260200183815260200182815260200194505050505060405180910390a150565b6003602052816000526040600020602052806000526040600020600091509150505481565b6000809054906101000a900473ffffffffffffffffffffffffffffffffffffffff1681565b60015481565b610aa434600360008073ffffffffffffffffffffffffffffffffffffffff1673ffffffffffffffffffffffffffffffffffffffff16815260200190815260200160002060003373ffffffffffffffffffffffffffffffffffffffff1673ffffffffffffffffffffffffffffffffffffffff1681526020019081526020016000205461109590919063ffffffff16565b600360008073ffffffffffffffffffffffffffffffffffffffff1673ffffffffffffffffffffffffffffffffffffffff16815260200190815260200160002060003373ffffffffffffffffffffffffffffffffffffffff1673ffffffffffffffffffffffffffffffffffffffff168152602001908152602001600020819055507fdcbc1c05240f31ff3ad067ef1ee35ce4997762752e3a095284754544f4c709d760003334600360008073ffffffffffffffffffffffffffffffffffffffff1673ffffffffffffffffffffffffffffffffffffffff16815260200190815260200160002060003373ffffffffffffffffffffffffffffffffffffffff1673ffffffffffffffffffffffffffffffffffffffff16815260200190815260200160002054604051808573ffffffffffffffffffffffffffffffffffffffff1673ffffffffffffffffffffffffffffffffffffffff1681526020018473ffffffffffffffffffffffffffffffffffffffff1673ffffffffffffffffffffffffffffffffffffffff16815260200183815260200182815260200194505050505060405180910390a1565b600073ffffffffffffffffffffffffffffffffffffffff168273ffffffffffffffffffffffffffffffffffffffff161415610c8457600080fd5b80600360008473ffffffffffffffffffffffffffffffffffffffff1673ffffffffffffffffffffffffffffffffffffffff16815260200190815260200160002060003373ffffffffffffffffffffffffffffffffffffffff1673ffffffffffffffffffffffffffffffffffffffff168152602001908152602001600020541015610d0d57600080fd5b610d9c81600360008573ffffffffffffffffffffffffffffffffffffffff1673ffffffffffffffffffffffffffffffffffffffff16815260200190815260200160002060003373ffffffffffffffffffffffffffffffffffffffff1673ffffffffffffffffffffffffffffffffffffffff168152602001908152602001600020546110b490919063ffffffff16565b600360008473ffffffffffffffffffffffffffffffffffffffff1673ffffffffffffffffffffffffffffffffffffffff16815260200190815260200160002060003373ffffffffffffffffffffffffffffffffffffffff1673ffffffffffffffffffffffffffffffffffffffff168152602001908152602001600020819055508173ffffffffffffffffffffffffffffffffffffffff1663a9059cbb33836040518363ffffffff1660e01b8152600401808373ffffffffffffffffffffffffffffffffffffffff1673ffffffffffffffffffffffffffffffffffffffff16815260200182815260200192505050602060405180830381600087803b158015610ea357600080fd5b505af1158015610eb7573d6000803e3d6000fd5b505050506040513d6020811015610ecd57600080fd5b8101908080519060200190929190505050610ee757600080fd5b7f91fb9d98b786c57d74c099ccd2beca1739e9f6a81fb49001ca465c4b7591bbe2823383600360008773ffffffffffffffffffffffffffffffffffffffff1673ffffffffffffffffffffffffffffffffffffffff16815260200190815260200160002060003373ffffffffffffffffffffffffffffffffffffffff1673ffffffffffffffffffffffffffffffffffffffff16815260200190815260200160002054604051808573ffffffffffffffffffffffffffffffffffffffff1673ffffffffffffffffffffffffffffffffffffffff1681526020018473ffffffffffffffffffffffffffffffffffffffff1673ffffffffffffffffffffffffffffffffffffffff16815260200183815260200182815260200194505050505060405180910390a15050565b6000600360008473ffffffffffffffffffffffffffffffffffffffff1673ffffffffffffffffffffffffffffffffffffffff16815260200190815260200160002060008373ffffffffffffffffffffffffffffffffffffffff1673ffffffffffffffffffffffffffffffffffffffff16815260200190815260200160002054905092915050565b6000808284019050838110156110aa57600080fd5b8091505092915050565b6000828211156110c357600080fd5b60008284039050809150509291505056fea265627a7a723158207da73781d2e295e80c9260d25a3a4ab5c1d171fcd207ec2396a98f48b214e1bc64736f6c63430005100032",
  "source": "pragma solidity ^0.5.0;\r\n\r\nimport \"./Token.sol\";\r\nimport \"openzeppelin-solidity/contracts/math/SafeMath.sol\";\r\n\r\n//Deposit and withdraw funds\r\n// manage orders - make orders or cancel\r\n// handle Trades - charge fees\r\n\r\n// TODO\r\n// [X] Set the fee account\r\n// [X] Deposit Ether\r\n// [X] Withdraw Ether\r\n// [X] Deposit tokens\r\n// [X] Withdraw tokens\r\n// [X] Check balances\r\n// [] Make order\r\n// [] Cancel order\r\n// [] Fill order\r\n// [] Charge fees\r\n\r\ncontract Exchange {\r\n\tusing SafeMath for uint;\r\n\r\n\t//Variables\r\n\taddress public feeAccount; //Account that will receive exchange fees\r\n\tuint256 public feePercent; // the fee percentage\r\n\taddress constant ETHER = address(0); //store Ether in tokens mapping with blank address\r\n\tuint256 public orderCount;\r\n\r\n\t// mapping(tokenAddress (all tokens that has been deposit) => mapping(address of the user that has deposit the token itself => uint256 is the balance)) public tokens;\r\n\t// token based mapping, foreach token we have a mapping telling the address of the user and the balance\r\n\tmapping(address => mapping(address => uint256)) public tokens;\r\n\r\n\t// store the order on the blockchain\r\n\t// uint256 will be the ID and the value will be _Order struct\r\n\t//mapping(uint256 => _Order) public orders;\r\n\r\n\t// Events\r\n\tevent Deposit(address token, address user, uint256 amount, uint256 balance);\r\n\tevent Withdrawn(address token, address user, uint256 amount, uint256 balance);\r\n\t// event Order(\t\t\r\n\t// \tuint256 id,\r\n\t// \taddress user, // person who create the order\r\n\t// \taddress tokenGet, // token the user want to purchase\r\n\t// \tuint256 amountGet, // amount the user want to purchase\r\n\t// \taddress tokenGive, // token the will use during the trade\r\n\t// \tuint256 amountGive, // the amount the user want to give\r\n\t// \tuint256 timestamp,\r\n\t// );\r\n\r\n\t// // ---- order\r\n\t// // a way to model the order\r\n\t// struct _Order {\r\n\t// \tuint256 id;\r\n\t// \taddress user; // person who create the order\r\n\t// \taddress tokenGet; // token the user want to purchase\r\n\t// \tuint256 amountGet; // amount the user want to purchase\r\n\t// \taddress tokenGive; // token the will use during the trade\r\n\t// \tuint256 amountGive; // the amount the user want to give\r\n\t// \tuint256 timestamp;\r\n\t// };\r\n\r\n\t// a way to store the order\r\n\t// doing by mapping\r\n\r\n\t// add the order to storage / retreive the storage\r\n\t// by using a function makeOrder\r\n\r\n\r\n\tconstructor(address _feeAccount, uint256 _feePercent) public {\r\n\t\tfeeAccount = _feeAccount;\r\n\t\tfeePercent = _feePercent;\r\n\t}\r\n\r\n\t// Fallback: revert if Ether is sent to this smart contract by mistake\r\n\tfunction() external {\r\n\t\trevert();\r\n\t}\r\n\r\n\tfunction depositEther() payable public {\r\n\t\ttokens[ETHER][msg.sender] = tokens[ETHER][msg.sender].add(msg.value);\r\n\t\t// Emit event\r\n\t\temit Deposit(ETHER, msg.sender, msg.value, tokens[ETHER][msg.sender]);\r\n\t}\r\n\r\n\tfunction withdrawEther(uint _amount) public {\r\n\t\trequire(tokens[ETHER][msg.sender] >= _amount);\r\n\t\ttokens[ETHER][msg.sender] = tokens[ETHER][msg.sender].sub(_amount);\r\n\t\tmsg.sender.transfer(_amount);\r\n\t\temit Withdrawn(ETHER, msg.sender, _amount, tokens[ETHER][msg.sender]);\r\n\t}\r\n\r\n\tfunction depositToken(address _token, uint256 _amount) public {\r\n\t\t// Which token - (address _token)\r\n\t\t// how much - (uint256 _amount)\r\n\r\n\t\t// don't allow Ether deposits\r\n\t\trequire(_token != ETHER);\r\n\r\n\t\t// ---------- send tokens to this contracts (Exchange)\r\n\t\t// access to the token to get function\r\n\t\t// 'this' represent this smart contract (Exchange)\r\n\t\t// it will move tokens to the smart contract itself\r\n\t\trequire(Token(_token).transferFrom(msg.sender, address(this), _amount));\r\n\r\n\t\t// deposit tokens\r\n\t\ttokens[_token][msg.sender] = tokens[_token][msg.sender].add(_amount);\r\n\t\t// ------ manage deposit\r\n\r\n\r\n\t\t// Emit event\r\n\t\temit Deposit(_token, msg.sender, _amount, tokens[_token][msg.sender]);\r\n\r\n\t}\r\n\r\n\tfunction withdrawToken(address _token, uint256 _amount) public {\r\n\t\trequire(_token != ETHER);\r\n\t\trequire(tokens[_token][msg.sender] >= _amount);\r\n\t\ttokens[_token][msg.sender] = tokens[_token][msg.sender].sub(_amount);\r\n\t\trequire(Token(_token).transfer(msg.sender, _amount));\r\n\t\temit Withdrawn(_token, msg.sender, _amount, tokens[_token][msg.sender]);\r\n\t}\r\n\r\n\tfunction balanceOf(address _token, address _user) public view returns (uint256) {\r\n\t\treturn tokens[_token][_user];\r\n\t}\r\n\r\n\t// function makeOrder(address _tokenGet, uint256 _amountGet, address _tokenGive, uint256 _amountGive) public {\r\n\t// \torderCount = orderCount.add(1);\r\n\t// \t// msg.sender = user from the order struct //\r\n\t// \torders[orderCount] = _Order(orderCount, msg.sender, _tokenGet, _amountGet, _tokenGive, _amountGive, now);\r\n\t// \temit Order(_id, msg.sender, _tokenGet, _amountGet, _tokenGive, _amountGive, now);\r\n\t// }\r\n}",
  "sourcePath": "/mnt/c/pr0/blockchain-dev-bootcamp/src/contracts/Exchange.sol",
  "compiler": {
    "name": "solc",
    "version": "0.5.16+commit.9c3226ce.Emscripten.clang"
  },
  "schemaVersion": "3.4.5",
  "updatedAt": "2022-03-04T11:32:25.105Z",
  "devdoc": {
    "methods": {}
  },
  "userdoc": {
    "methods": {}
  }
}